{
  "abi": [
    {
      "inputs": [],
      "stateMutability": "nonpayable",
      "type": "constructor"
    },
    {
      "anonymous": false,
      "inputs": [
        {
          "indexed": true,
          "internalType": "uint256",
          "name": "eventId",
          "type": "uint256"
        },
        {
          "indexed": true,
          "internalType": "address",
          "name": "creator",
          "type": "address"
        },
        {
          "indexed": true,
          "internalType": "string",
          "name": "location",
          "type": "string"
        },
        {
          "indexed": false,
          "internalType": "uint256",
          "name": "date",
          "type": "uint256"
        },
        {
          "indexed": false,
          "internalType": "uint256",
          "name": "startTime",
          "type": "uint256"
        },
        {
          "indexed": false,
          "internalType": "uint256",
          "name": "endTime",
          "type": "uint256"
        },
        {
          "indexed": false,
          "internalType": "uint256",
          "name": "price",
          "type": "uint256"
        }
      ],
      "name": "EditEvent",
      "type": "event"
    },
    {
      "anonymous": false,
      "inputs": [
        {
          "indexed": true,
          "internalType": "uint256",
          "name": "eventId",
          "type": "uint256"
        },
        {
          "indexed": true,
          "internalType": "address",
          "name": "creator",
          "type": "address"
        },
        {
          "indexed": true,
          "internalType": "string",
          "name": "location",
          "type": "string"
        },
        {
          "indexed": false,
          "internalType": "uint256",
          "name": "date",
          "type": "uint256"
        },
        {
          "indexed": false,
          "internalType": "uint256",
          "name": "startTime",
          "type": "uint256"
        },
        {
          "indexed": false,
          "internalType": "uint256",
          "name": "endTime",
          "type": "uint256"
        },
        {
          "indexed": false,
          "internalType": "uint256",
          "name": "price",
          "type": "uint256"
        }
      ],
      "name": "EventCreated",
      "type": "event"
    },
    {
      "inputs": [
        {
          "internalType": "string",
          "name": "name",
          "type": "string"
        },
        {
          "internalType": "string",
          "name": "location",
          "type": "string"
        },
        {
          "internalType": "uint256",
          "name": "date",
          "type": "uint256"
        },
        {
          "internalType": "uint256",
          "name": "startTime",
          "type": "uint256"
        },
        {
          "internalType": "uint256",
          "name": "endTime",
          "type": "uint256"
        },
        {
          "internalType": "string",
          "name": "description",
          "type": "string"
        },
        {
          "internalType": "uint256",
          "name": "eventType",
          "type": "uint256"
        },
        {
          "internalType": "uint256",
          "name": "price",
          "type": "uint256"
        },
        {
          "internalType": "uint256",
          "name": "ticketQuantity",
          "type": "uint256"
        }
      ],
      "name": "createEvent",
      "outputs": [],
      "stateMutability": "nonpayable",
      "type": "function"
    },
    {
      "inputs": [],
      "name": "currentEventId",
      "outputs": [
        {
          "internalType": "uint256",
          "name": "",
          "type": "uint256"
        }
      ],
      "stateMutability": "view",
      "type": "function"
    },
    {
      "inputs": [
        {
          "internalType": "uint256",
          "name": "eventId",
          "type": "uint256"
        },
        {
          "internalType": "string",
          "name": "name",
          "type": "string"
        },
        {
          "internalType": "string",
          "name": "location",
          "type": "string"
        },
        {
          "internalType": "uint256",
          "name": "date",
          "type": "uint256"
        },
        {
          "internalType": "uint256",
          "name": "startTime",
          "type": "uint256"
        },
        {
          "internalType": "uint256",
          "name": "endTime",
          "type": "uint256"
        },
        {
          "internalType": "string",
          "name": "description",
          "type": "string"
        },
        {
          "internalType": "uint256",
          "name": "eventType",
          "type": "uint256"
        },
        {
          "internalType": "uint256",
          "name": "price",
          "type": "uint256"
        },
        {
          "internalType": "uint256",
          "name": "ticketQuantity",
          "type": "uint256"
        }
      ],
      "name": "editEvent",
      "outputs": [],
      "stateMutability": "nonpayable",
      "type": "function"
    },
    {
      "inputs": [
        {
          "internalType": "uint256",
          "name": "",
          "type": "uint256"
        }
      ],
      "name": "events",
      "outputs": [
        {
          "internalType": "address",
          "name": "creator",
          "type": "address"
        },
        {
          "internalType": "string",
          "name": "name",
          "type": "string"
        },
        {
          "internalType": "string",
          "name": "location",
          "type": "string"
        },
        {
          "internalType": "uint256",
          "name": "date",
          "type": "uint256"
        },
        {
          "internalType": "uint256",
          "name": "startTime",
          "type": "uint256"
        },
        {
          "internalType": "uint256",
          "name": "endTime",
          "type": "uint256"
        },
        {
          "internalType": "string",
          "name": "description",
          "type": "string"
        },
        {
          "internalType": "uint256",
          "name": "eventType",
          "type": "uint256"
        },
        {
          "internalType": "uint256",
          "name": "price",
          "type": "uint256"
        },
        {
          "internalType": "uint256",
          "name": "ticketQuantity",
          "type": "uint256"
        },
        {
          "internalType": "uint256",
          "name": "remainingTickets",
          "type": "uint256"
        }
      ],
      "stateMutability": "view",
      "type": "function"
    },
    {
      "inputs": [],
      "name": "owner",
      "outputs": [
        {
          "internalType": "address",
          "name": "",
          "type": "address"
        }
      ],
      "stateMutability": "view",
      "type": "function"
    }
  ],
  "bytecode": {
    "object": "0x60a060405234801561001057600080fd5b5033608052608051610cab61002f600039600060cf0152610cab6000f3fe608060405234801561001057600080fd5b50600436106100575760003560e01c8063091dbbd71461005c5780630b7914301461007857806327c9adb6146100a25780635b1c4bea146100b75780638da5cb5b146100ca575b600080fd5b61006560015481565b6040519081526020015b60405180910390f35b61008b610086366004610739565b610109565b60405161006f9b9a999897969594939291906107a2565b6100b56100b03660046108d2565b6102fe565b005b6100b56100c53660046109a0565b6105a6565b6100f17f000000000000000000000000000000000000000000000000000000000000000081565b6040516001600160a01b03909116815260200161006f565b600060208190529081526040902080546001820180546001600160a01b03909216929161013590610a63565b80601f016020809104026020016040519081016040528092919081815260200182805461016190610a63565b80156101ae5780601f10610183576101008083540402835291602001916101ae565b820191906000526020600020905b81548152906001019060200180831161019157829003601f168201915b5050505050908060020180546101c390610a63565b80601f01602080910402602001604051908101604052809291908181526020018280546101ef90610a63565b801561023c5780601f106102115761010080835404028352916020019161023c565b820191906000526020600020905b81548152906001019060200180831161021f57829003601f168201915b50505050509080600301549080600401549080600501549080600601805461026390610a63565b80601f016020809104026020016040519081016040528092919081815260200182805461028f90610a63565b80156102dc5780601f106102b1576101008083540402835291602001916102dc565b820191906000526020600020905b8154815290600101906020018083116102bf57829003601f168201915b50505050509080600701549080600801549080600901549080600a015490508b565b6001548a111561034c5760405162461bcd60e51b8152602060048201526014602482015273115d995b9d08191bd95cc81b9bdd08195e1a5cdd60621b60448201526064015b60405180910390fd5b60008a8152602081905260409020546001600160a01b031633146103c45760405162461bcd60e51b815260206004820152602960248201527f4f6e6c7920746865206576656e742063726561746f722063616e2065646974206044820152681d1a1948195d995b9d60ba1b6064820152608401610343565b60008a81526020819052604090208951158015906104015750806001016040516103ee9190610b10565b60405180910390208a8051906020012014155b1561041657600181016104148b82610b72565b505b600089511180156104465750806002016040516104339190610b10565b6040518091039020898051906020012014155b1561045b57600281016104598a82610b72565b505b8060030154881461046e57600381018890555b8060040154871461048157600481018790555b8060050154861461049457600581018690555b600085511180156104c45750806006016040516104b19190610b10565b6040518091039020858051906020012014155b156104d957600681016104d78682610b72565b505b806007015484146104ec57600781018490555b806008015483146104ff57600881018390555b8060090154821461051257600981018290555b806002016040516105239190610b10565b6040518091039020336001600160a01b03168c7f84c07176226dc6e643d582013cb8b890e3dfee3dd896f0d13558c04bcfcee2958460030154856004015486600501548760080154604051610591949392919093845260208401929092526040830152606082015260800190565b60405180910390a45050505050505050505050565b60018060008282546105b89190610c32565b9091555050604080516101608101825233815260208082018c81528284018c9052606083018b9052608083018a905260a0830189905260c0830188905260e083018790526101008301869052610120830185905261014083018590526001805460009081529283905293909120825181546001600160a01b0319166001600160a01b03909116178155905191929091908201906106559082610b72565b506040820151600282019061066a9082610b72565b50606082015160038201556080820151600482015560a0820151600582015560c0820151600682019061069d9082610b72565b5060e082015160078201556101008201516008820155610120820151600982015561014090910151600a909101556040516106d9908990610c59565b604080519182900382206001548a8452602084018a905291830188905260608301859052913391907fb6a83ff9d6bbd62d96305d6eb336e501e42317b524fcca1b5ae9d5be9195812a9060800160405180910390a4505050505050505050565b60006020828403121561074b57600080fd5b5035919050565b60005b8381101561076d578181015183820152602001610755565b50506000910152565b6000815180845261078e816020860160208601610752565b601f01601f19169290920160200192915050565b6001600160a01b038c168152610160602082018190526000906107c78382018e610776565b905082810360408401526107db818d610776565b90508a60608401528960808401528860a084015282810360c08401526108018189610776565b9150508560e08301528461010083015283610120830152826101408301529c9b505050505050505050505050565b634e487b7160e01b600052604160045260246000fd5b600082601f83011261085657600080fd5b813567ffffffffffffffff808211156108715761087161082f565b604051601f8301601f19908116603f011681019082821181831017156108995761089961082f565b816040528381528660208588010111156108b257600080fd5b836020870160208301376000602085830101528094505050505092915050565b6000806000806000806000806000806101408b8d0312156108f257600080fd5b8a35995060208b013567ffffffffffffffff8082111561091157600080fd5b61091d8e838f01610845565b9a5060408d013591508082111561093357600080fd5b61093f8e838f01610845565b995060608d0135985060808d0135975060a08d0135965060c08d013591508082111561096a57600080fd5b506109778d828e01610845565b94505060e08b013592506101008b013591506101208b013590509295989b9194979a5092959850565b60008060008060008060008060006101208a8c0312156109bf57600080fd5b893567ffffffffffffffff808211156109d757600080fd5b6109e38d838e01610845565b9a5060208c01359150808211156109f957600080fd5b610a058d838e01610845565b995060408c0135985060608c0135975060808c0135965060a08c0135915080821115610a3057600080fd5b50610a3d8c828d01610845565b94505060c08a0135925060e08a013591506101008a013590509295985092959850929598565b600181811c90821680610a7757607f821691505b602082108103610a9757634e487b7160e01b600052602260045260246000fd5b50919050565b60008154610aaa81610a63565b60018281168015610ac25760018114610ad757610b06565b60ff1984168752821515830287019450610b06565b8560005260208060002060005b85811015610afd5781548a820152908401908201610ae4565b50505082870194505b5050505092915050565b6000610b1c8284610a9d565b9392505050565b601f821115610b6d57600081815260208120601f850160051c81016020861015610b4a5750805b601f850160051c820191505b81811015610b6957828155600101610b56565b5050505b505050565b815167ffffffffffffffff811115610b8c57610b8c61082f565b610ba081610b9a8454610a63565b84610b23565b602080601f831160018114610bd55760008415610bbd5750858301515b600019600386901b1c1916600185901b178555610b69565b600085815260208120601f198616915b82811015610c0457888601518255948401946001909101908401610be5565b5085821015610c225787850151600019600388901b60f8161c191681555b5050505050600190811b01905550565b80820180821115610c5357634e487b7160e01b600052601160045260246000fd5b92915050565b60008251610c6b818460208701610752565b919091019291505056fea2646970667358221220655c1b0aeb48eda3392efdad1e5fecd6264ce2bcbf7c4da118ea1c8f9342de9764736f6c63430008130033",
    "linkReferences": {}
  },
  "methodIdentifiers": {
    "createEvent(string,string,uint256,uint256,uint256,string,uint256,uint256,uint256)": "5b1c4bea",
    "currentEventId()": "091dbbd7",
    "editEvent(uint256,string,string,uint256,uint256,uint256,string,uint256,uint256,uint256)": "27c9adb6",
    "events(uint256)": "0b791430",
    "owner()": "8da5cb5b"
  },
  "id": 27
}