{
  "abi": [
    {
      "inputs": [
        {
          "internalType": "string",
          "name": "uri_",
          "type": "string"
        }
      ],
      "stateMutability": "nonpayable",
      "type": "constructor"
    },
    {
      "inputs": [],
      "name": "ExceededTicketQtyLeft",
      "type": "error"
    },
    {
      "inputs": [],
      "name": "FailedWithdrawal",
      "type": "error"
    },
    {
      "inputs": [],
      "name": "InsufficientETHSent",
      "type": "error"
    },
    {
      "inputs": [],
      "name": "InvalidId",
      "type": "error"
    },
    {
      "inputs": [],
      "name": "NotCreator",
      "type": "error"
    },
    {
      "inputs": [],
      "name": "NotEnoughTickets",
      "type": "error"
    },
    {
      "inputs": [],
      "name": "OngoingEvent",
      "type": "error"
    },
    {
      "anonymous": false,
      "inputs": [
        {
          "indexed": true,
          "internalType": "address",
          "name": "account",
          "type": "address"
        },
        {
          "indexed": true,
          "internalType": "address",
          "name": "operator",
          "type": "address"
        },
        {
          "indexed": false,
          "internalType": "bool",
          "name": "approved",
          "type": "bool"
        }
      ],
      "name": "ApprovalForAll",
      "type": "event"
    },
    {
      "anonymous": false,
      "inputs": [
        {
          "indexed": true,
          "internalType": "uint256",
          "name": "eventId",
          "type": "uint256"
        },
        {
          "indexed": true,
          "internalType": "address",
          "name": "creator",
          "type": "address"
        },
        {
          "indexed": true,
          "internalType": "string",
          "name": "location",
          "type": "string"
        },
        {
          "indexed": false,
          "internalType": "uint256",
          "name": "date",
          "type": "uint256"
        },
        {
          "indexed": false,
          "internalType": "uint256",
          "name": "startTime",
          "type": "uint256"
        },
        {
          "indexed": false,
          "internalType": "uint256",
          "name": "endTime",
          "type": "uint256"
        },
        {
          "indexed": false,
          "internalType": "uint256",
          "name": "price",
          "type": "uint256"
        }
      ],
      "name": "EditEvent",
      "type": "event"
    },
    {
      "anonymous": false,
      "inputs": [
        {
          "indexed": true,
          "internalType": "uint256",
          "name": "eventId",
          "type": "uint256"
        },
        {
          "indexed": true,
          "internalType": "address",
          "name": "creator",
          "type": "address"
        },
        {
          "indexed": true,
          "internalType": "string",
          "name": "location",
          "type": "string"
        },
        {
          "indexed": false,
          "internalType": "uint256",
          "name": "date",
          "type": "uint256"
        },
        {
          "indexed": false,
          "internalType": "uint256",
          "name": "startTime",
          "type": "uint256"
        },
        {
          "indexed": false,
          "internalType": "uint256",
          "name": "endTime",
          "type": "uint256"
        },
        {
          "indexed": false,
          "internalType": "uint256",
          "name": "price",
          "type": "uint256"
        }
      ],
      "name": "EventCreated",
      "type": "event"
    },
    {
      "anonymous": false,
      "inputs": [
        {
          "indexed": true,
          "internalType": "address",
          "name": "minter",
          "type": "address"
        },
        {
          "indexed": true,
          "internalType": "uint256",
          "name": "eventId",
          "type": "uint256"
        },
        {
          "indexed": true,
          "internalType": "uint256",
          "name": "numOfTickets",
          "type": "uint256"
        }
      ],
      "name": "PurchaseSuccessful",
      "type": "event"
    },
    {
      "anonymous": false,
      "inputs": [
        {
          "indexed": true,
          "internalType": "address",
          "name": "operator",
          "type": "address"
        },
        {
          "indexed": true,
          "internalType": "address",
          "name": "from",
          "type": "address"
        },
        {
          "indexed": true,
          "internalType": "address",
          "name": "to",
          "type": "address"
        },
        {
          "indexed": false,
          "internalType": "uint256[]",
          "name": "ids",
          "type": "uint256[]"
        },
        {
          "indexed": false,
          "internalType": "uint256[]",
          "name": "values",
          "type": "uint256[]"
        }
      ],
      "name": "TransferBatch",
      "type": "event"
    },
    {
      "anonymous": false,
      "inputs": [
        {
          "indexed": true,
          "internalType": "address",
          "name": "operator",
          "type": "address"
        },
        {
          "indexed": true,
          "internalType": "address",
          "name": "from",
          "type": "address"
        },
        {
          "indexed": true,
          "internalType": "address",
          "name": "to",
          "type": "address"
        },
        {
          "indexed": false,
          "internalType": "uint256",
          "name": "id",
          "type": "uint256"
        },
        {
          "indexed": false,
          "internalType": "uint256",
          "name": "value",
          "type": "uint256"
        }
      ],
      "name": "TransferSingle",
      "type": "event"
    },
    {
      "anonymous": false,
      "inputs": [
        {
          "indexed": true,
          "internalType": "address",
          "name": "sender",
          "type": "address"
        },
        {
          "indexed": true,
          "internalType": "address",
          "name": "recipient",
          "type": "address"
        },
        {
          "indexed": true,
          "internalType": "uint256",
          "name": "eventId",
          "type": "uint256"
        },
        {
          "indexed": false,
          "internalType": "uint256",
          "name": "numOfTickets",
          "type": "uint256"
        }
      ],
      "name": "TransferSucessful",
      "type": "event"
    },
    {
      "anonymous": false,
      "inputs": [
        {
          "indexed": false,
          "internalType": "string",
          "name": "value",
          "type": "string"
        },
        {
          "indexed": true,
          "internalType": "uint256",
          "name": "id",
          "type": "uint256"
        }
      ],
      "name": "URI",
      "type": "event"
    },
    {
      "inputs": [
        {
          "internalType": "address",
          "name": "account",
          "type": "address"
        },
        {
          "internalType": "uint256",
          "name": "id",
          "type": "uint256"
        }
      ],
      "name": "balanceOf",
      "outputs": [
        {
          "internalType": "uint256",
          "name": "",
          "type": "uint256"
        }
      ],
      "stateMutability": "view",
      "type": "function"
    },
    {
      "inputs": [
        {
          "internalType": "address[]",
          "name": "accounts",
          "type": "address[]"
        },
        {
          "internalType": "uint256[]",
          "name": "ids",
          "type": "uint256[]"
        }
      ],
      "name": "balanceOfBatch",
      "outputs": [
        {
          "internalType": "uint256[]",
          "name": "",
          "type": "uint256[]"
        }
      ],
      "stateMutability": "view",
      "type": "function"
    },
    {
      "inputs": [
        {
          "internalType": "string",
          "name": "name",
          "type": "string"
        },
        {
          "internalType": "string",
          "name": "location",
          "type": "string"
        },
        {
          "internalType": "uint256",
          "name": "date",
          "type": "uint256"
        },
        {
          "internalType": "uint256",
          "name": "startTime",
          "type": "uint256"
        },
        {
          "internalType": "uint256",
          "name": "endTime",
          "type": "uint256"
        },
        {
          "internalType": "string",
          "name": "description",
          "type": "string"
        },
        {
          "internalType": "uint256",
          "name": "eventType",
          "type": "uint256"
        },
        {
          "internalType": "uint256",
          "name": "price",
          "type": "uint256"
        },
        {
          "internalType": "uint256",
          "name": "ticketQuantity",
          "type": "uint256"
        }
      ],
      "name": "createEvent",
      "outputs": [],
      "stateMutability": "nonpayable",
      "type": "function"
    },
    {
      "inputs": [],
      "name": "currentEventId",
      "outputs": [
        {
          "internalType": "uint256",
          "name": "",
          "type": "uint256"
        }
      ],
      "stateMutability": "view",
      "type": "function"
    },
    {
      "inputs": [
        {
          "internalType": "uint256",
          "name": "eventId",
          "type": "uint256"
        },
        {
          "internalType": "string",
          "name": "name",
          "type": "string"
        },
        {
          "internalType": "string",
          "name": "location",
          "type": "string"
        },
        {
          "internalType": "uint256",
          "name": "date",
          "type": "uint256"
        },
        {
          "internalType": "uint256",
          "name": "startTime",
          "type": "uint256"
        },
        {
          "internalType": "uint256",
          "name": "endTime",
          "type": "uint256"
        },
        {
          "internalType": "string",
          "name": "description",
          "type": "string"
        },
        {
          "internalType": "uint256",
          "name": "eventType",
          "type": "uint256"
        },
        {
          "internalType": "uint256",
          "name": "price",
          "type": "uint256"
        },
        {
          "internalType": "uint256",
          "name": "ticketQuantity",
          "type": "uint256"
        }
      ],
      "name": "editEvent",
      "outputs": [],
      "stateMutability": "nonpayable",
      "type": "function"
    },
    {
      "inputs": [
        {
          "internalType": "uint256",
          "name": "",
          "type": "uint256"
        }
      ],
      "name": "events",
      "outputs": [
        {
          "internalType": "address",
          "name": "creator",
          "type": "address"
        },
        {
          "internalType": "string",
          "name": "name",
          "type": "string"
        },
        {
          "internalType": "string",
          "name": "location",
          "type": "string"
        },
        {
          "internalType": "uint256",
          "name": "date",
          "type": "uint256"
        },
        {
          "internalType": "uint256",
          "name": "startTime",
          "type": "uint256"
        },
        {
          "internalType": "uint256",
          "name": "endTime",
          "type": "uint256"
        },
        {
          "internalType": "string",
          "name": "description",
          "type": "string"
        },
        {
          "internalType": "uint256",
          "name": "eventType",
          "type": "uint256"
        },
        {
          "internalType": "uint256",
          "name": "price",
          "type": "uint256"
        },
        {
          "internalType": "uint256",
          "name": "ticketQuantity",
          "type": "uint256"
        },
        {
          "internalType": "uint256",
          "name": "remainingTickets",
          "type": "uint256"
        }
      ],
      "stateMutability": "view",
      "type": "function"
    },
    {
      "inputs": [
        {
          "internalType": "uint256",
          "name": "eventId",
          "type": "uint256"
        }
      ],
      "name": "getUri",
      "outputs": [
        {
          "internalType": "string",
          "name": "",
          "type": "string"
        }
      ],
      "stateMutability": "view",
      "type": "function"
    },
    {
      "inputs": [
        {
          "internalType": "address",
          "name": "account",
          "type": "address"
        },
        {
          "internalType": "address",
          "name": "operator",
          "type": "address"
        }
      ],
      "name": "isApprovedForAll",
      "outputs": [
        {
          "internalType": "bool",
          "name": "",
          "type": "bool"
        }
      ],
      "stateMutability": "view",
      "type": "function"
    },
    {
      "inputs": [],
      "name": "owner",
      "outputs": [
        {
          "internalType": "address",
          "name": "",
          "type": "address"
        }
      ],
      "stateMutability": "view",
      "type": "function"
    },
    {
      "inputs": [
        {
          "internalType": "uint256",
          "name": "eventId",
          "type": "uint256"
        },
        {
          "internalType": "uint256",
          "name": "numOfTickets",
          "type": "uint256"
        }
      ],
      "name": "purchaseTickets",
      "outputs": [],
      "stateMutability": "payable",
      "type": "function"
    },
    {
      "inputs": [
        {
          "internalType": "address",
          "name": "from",
          "type": "address"
        },
        {
          "internalType": "address",
          "name": "to",
          "type": "address"
        },
        {
          "internalType": "uint256[]",
          "name": "ids",
          "type": "uint256[]"
        },
        {
          "internalType": "uint256[]",
          "name": "amounts",
          "type": "uint256[]"
        },
        {
          "internalType": "bytes",
          "name": "data",
          "type": "bytes"
        }
      ],
      "name": "safeBatchTransferFrom",
      "outputs": [],
      "stateMutability": "nonpayable",
      "type": "function"
    },
    {
      "inputs": [
        {
          "internalType": "address",
          "name": "from",
          "type": "address"
        },
        {
          "internalType": "address",
          "name": "to",
          "type": "address"
        },
        {
          "internalType": "uint256",
          "name": "id",
          "type": "uint256"
        },
        {
          "internalType": "uint256",
          "name": "amount",
          "type": "uint256"
        },
        {
          "internalType": "bytes",
          "name": "data",
          "type": "bytes"
        }
      ],
      "name": "safeTransferFrom",
      "outputs": [],
      "stateMutability": "nonpayable",
      "type": "function"
    },
    {
      "inputs": [
        {
          "internalType": "address",
          "name": "operator",
          "type": "address"
        },
        {
          "internalType": "bool",
          "name": "approved",
          "type": "bool"
        }
      ],
      "name": "setApprovalForAll",
      "outputs": [],
      "stateMutability": "nonpayable",
      "type": "function"
    },
    {
      "inputs": [
        {
          "internalType": "bytes4",
          "name": "interfaceId",
          "type": "bytes4"
        }
      ],
      "name": "supportsInterface",
      "outputs": [
        {
          "internalType": "bool",
          "name": "",
          "type": "bool"
        }
      ],
      "stateMutability": "view",
      "type": "function"
    },
    {
      "inputs": [
        {
          "internalType": "address",
          "name": "recipient",
          "type": "address"
        },
        {
          "internalType": "uint256",
          "name": "eventId",
          "type": "uint256"
        },
        {
          "internalType": "uint256",
          "name": "numOfTickets",
          "type": "uint256"
        }
      ],
      "name": "transferTicket",
      "outputs": [],
      "stateMutability": "nonpayable",
      "type": "function"
    },
    {
      "inputs": [
        {
          "internalType": "uint256",
          "name": "",
          "type": "uint256"
        }
      ],
      "name": "uri",
      "outputs": [
        {
          "internalType": "string",
          "name": "",
          "type": "string"
        }
      ],
      "stateMutability": "view",
      "type": "function"
    },
    {
      "inputs": [
        {
          "internalType": "uint256",
          "name": "eventId",
          "type": "uint256"
        }
      ],
      "name": "withdraw",
      "outputs": [],
      "stateMutability": "nonpayable",
      "type": "function"
    }
  ],
  "bytecode": {
    "object": "0x60a06040523480156200001157600080fd5b5060405162002a9638038062002a96833981016040819052620000349162000079565b80620000408162000051565b5050600160035533608052620002a9565b60026200005f8282620001dd565b5050565b634e487b7160e01b600052604160045260246000fd5b600060208083850312156200008d57600080fd5b82516001600160401b0380821115620000a557600080fd5b818501915085601f830112620000ba57600080fd5b815181811115620000cf57620000cf62000063565b604051601f8201601f19908116603f01168101908382118183101715620000fa57620000fa62000063565b8160405282815288868487010111156200011357600080fd5b600093505b8284101562000137578484018601518185018701529285019262000118565b600086848301015280965050505050505092915050565b600181811c908216806200016357607f821691505b6020821081036200018457634e487b7160e01b600052602260045260246000fd5b50919050565b601f821115620001d857600081815260208120601f850160051c81016020861015620001b35750805b601f850160051c820191505b81811015620001d457828155600101620001bf565b5050505b505050565b81516001600160401b03811115620001f957620001f962000063565b62000211816200020a84546200014e565b846200018a565b602080601f831160018114620002495760008415620002305750858301515b600019600386901b1c1916600185901b178555620001d4565b600085815260208120601f198616915b828110156200027a5788860151825594840194600190910190840162000259565b5085821015620002995787850151600019600388901b60f8161c191681555b5050505050600190811b01905550565b6080516127d1620002c560003960006102a001526127d16000f3fe6080604052600436106100fd5760003560e01c80634e1273f411610095578063acd4b5e911610064578063acd4b5e9146102fa578063da0544aa1461031a578063e985e9c51461033a578063f242432a14610383578063f4057c06146103a357600080fd5b80634e1273f4146102415780635b1c4bea1461026e5780638da5cb5b1461028e578063a22cb465146102da57600080fd5b80630e89341c116100d15780630e89341c146101b257806327c9adb6146101df5780632e1a7d4d146102015780632eb2c2d61461022157600080fd5b8062fdd58e1461010257806301ffc9a714610135578063091dbbd7146101655780630b7914301461017b575b600080fd5b34801561010e57600080fd5b5061012261011d366004611b28565b6103b6565b6040519081526020015b60405180910390f35b34801561014157600080fd5b50610155610150366004611b68565b61044f565b604051901515815260200161012c565b34801561017157600080fd5b5061012260055481565b34801561018757600080fd5b5061019b610196366004611b8c565b61049f565b60405161012c9b9a99989796959493929190611bf5565b3480156101be57600080fd5b506101d26101cd366004611b8c565b610694565b60405161012c9190611c82565b3480156101eb57600080fd5b506101ff6101fa366004611d4c565b610728565b005b34801561020d57600080fd5b506101ff61021c366004611b8c565b6109cb565b34801561022d57600080fd5b506101ff61023c366004611eaf565b610da9565b34801561024d57600080fd5b5061026161025c366004611f59565b610df5565b60405161012c919061205f565b34801561027a57600080fd5b506101ff610289366004612072565b610f1f565b34801561029a57600080fd5b506102c27f000000000000000000000000000000000000000000000000000000000000000081565b6040516001600160a01b03909116815260200161012c565b3480156102e657600080fd5b506101ff6102f5366004612135565b6110b2565b34801561030657600080fd5b506101ff610315366004612171565b6110bd565b34801561032657600080fd5b506101d2610335366004611b8c565b61117b565b34801561034657600080fd5b506101556103553660046121a4565b6001600160a01b03918216600090815260016020908152604080832093909416825291909152205460ff1690565b34801561038f57600080fd5b506101ff61039e3660046121d7565b6111b4565b6101ff6103b136600461223c565b6111f9565b60006001600160a01b0383166104265760405162461bcd60e51b815260206004820152602a60248201527f455243313135353a2061646472657373207a65726f206973206e6f742061207660448201526930b634b21037bbb732b960b11b60648201526084015b60405180910390fd5b506000818152602081815260408083206001600160a01b03861684529091529020545b92915050565b60006001600160e01b03198216636cdb3d1360e11b148061048057506001600160e01b031982166303a24d0760e21b145b8061044957506301ffc9a760e01b6001600160e01b0319831614610449565b600460205260009081526040902080546001820180546001600160a01b0390921692916104cb9061225e565b80601f01602080910402602001604051908101604052809291908181526020018280546104f79061225e565b80156105445780601f1061051957610100808354040283529160200191610544565b820191906000526020600020905b81548152906001019060200180831161052757829003601f168201915b5050505050908060020180546105599061225e565b80601f01602080910402602001604051908101604052809291908181526020018280546105859061225e565b80156105d25780601f106105a7576101008083540402835291602001916105d2565b820191906000526020600020905b8154815290600101906020018083116105b557829003601f168201915b5050505050908060030154908060040154908060050154908060060180546105f99061225e565b80601f01602080910402602001604051908101604052809291908181526020018280546106259061225e565b80156106725780601f1061064757610100808354040283529160200191610672565b820191906000526020600020905b81548152906001019060200180831161065557829003601f168201915b50505050509080600701549080600801549080600901549080600a015490508b565b6060600280546106a39061225e565b80601f01602080910402602001604051908101604052809291908181526020018280546106cf9061225e565b801561071c5780601f106106f15761010080835404028352916020019161071c565b820191906000526020600020905b8154815290600101906020018083116106ff57829003601f168201915b50505050509050919050565b6005548a11156107715760405162461bcd60e51b8152602060048201526014602482015273115d995b9d08191bd95cc81b9bdd08195e1a5cdd60621b604482015260640161041d565b60008a8152600460205260409020546001600160a01b031633146107e95760405162461bcd60e51b815260206004820152602960248201527f4f6e6c7920746865206576656e742063726561746f722063616e2065646974206044820152681d1a1948195d995b9d60ba1b606482015260840161041d565b60008a8152600460205260409020895115801590610826575080600101604051610813919061230b565b60405180910390208a8051906020012014155b1561083b57600181016108398b82612362565b505b6000895111801561086b575080600201604051610858919061230b565b6040518091039020898051906020012014155b15610880576002810161087e8a82612362565b505b8060030154881461089357600381018890555b806004015487146108a657600481018790555b806005015486146108b957600581018690555b600085511180156108e95750806006016040516108d6919061230b565b6040518091039020858051906020012014155b156108fe57600681016108fc8682612362565b505b8060070154841461091157600781018490555b8060080154831461092457600881018390555b8060090154821461093757600981018290555b80600201604051610948919061230b565b6040518091039020336001600160a01b03168c7f84c07176226dc6e643d582013cb8b890e3dfee3dd896f0d13558c04bcfcee29584600301548560040154866005015487600801546040516109b6949392919093845260208401929092526040830152606082015260800190565b60405180910390a45050505050505050505050565b806005548111156109ef57604051631bf4348160e31b815260040160405180910390fd5b6109f7611301565b60008281526004602090815260408083208151610160810190925280546001600160a01b031682526001810180549293919291840191610a369061225e565b80601f0160208091040260200160405190810160405280929190818152602001828054610a629061225e565b8015610aaf5780601f10610a8457610100808354040283529160200191610aaf565b820191906000526020600020905b815481529060010190602001808311610a9257829003601f168201915b50505050508152602001600282018054610ac89061225e565b80601f0160208091040260200160405190810160405280929190818152602001828054610af49061225e565b8015610b415780601f10610b1657610100808354040283529160200191610b41565b820191906000526020600020905b815481529060010190602001808311610b2457829003601f168201915b50505050508152602001600382015481526020016004820154815260200160058201548152602001600682018054610b789061225e565b80601f0160208091040260200160405190810160405280929190818152602001828054610ba49061225e565b8015610bf15780601f10610bc657610100808354040283529160200191610bf1565b820191906000526020600020905b815481529060010190602001808311610bd457829003601f168201915b5050509183525050600782015460208201526008820154604082015260098201546060820152600a90910154608090910152805160a082015191925090421015610c4e57604051636c215b7360e11b815260040160405180910390fd5b336001600160a01b03821614610c77576040516393687c0b60e01b815260040160405180910390fd5b6000826101000151836101400151846101200151610c959190612438565b610c9f919061244b565b90506000826001600160a01b03168260405160006040518083038185875af1925050503d8060008114610cee576040519150601f19603f3d011682016040523d82523d6000602084013e610cf3565b606091505b5050905080610d155760405163a124823560e01b815260040160405180910390fd5b600086815260046020526040812080546001600160a01b031916815590610d3f6001830182611ab6565b610d4d600283016000611ab6565b600382016000905560048201600090556005820160009055600682016000610d759190611ab6565b600782016000905560088201600090556009820160009055600a820160009055505050505050610da56001600355565b5050565b6001600160a01b038516331480610dc55750610dc58533610355565b610de15760405162461bcd60e51b815260040161041d90612462565b610dee858585858561135a565b5050505050565b60608151835114610e5a5760405162461bcd60e51b815260206004820152602960248201527f455243313135353a206163636f756e747320616e6420696473206c656e677468604482015268040dad2e6dac2e8c6d60bb1b606482015260840161041d565b6000835167ffffffffffffffff811115610e7657610e76611c95565b604051908082528060200260200182016040528015610e9f578160200160208202803683370190505b50905060005b8451811015610f1757610eea858281518110610ec357610ec36124b0565b6020026020010151858381518110610edd57610edd6124b0565b60200260200101516103b6565b828281518110610efc57610efc6124b0565b6020908102919091010152610f10816124c6565b9050610ea5565b509392505050565b600160056000828254610f3291906124df565b9091555050604080516101608101825233815260208082018c81528284018c9052606083018b9052608083018a905260a0830189905260c0830188905260e0830187905261010083018690526101208301859052610140830185905260055460009081526004909252929020815181546001600160a01b0319166001600160a01b0390911617815591519091906001820190610fce9082612362565b5060408201516002820190610fe39082612362565b50606082015160038201556080820151600482015560a0820151600582015560c082015160068201906110169082612362565b5060e082015160078201556101008201516008820155610120820151600982015561014090910151600a909101556040516110529089906124f2565b604080519182900382206005548a8452602084018a905291830188905260608301859052913391907fb6a83ff9d6bbd62d96305d6eb336e501e42317b524fcca1b5ae9d5be9195812a9060800160405180910390a4505050505050505050565b610da5338383611537565b816005548111156110e157604051631bf4348160e31b815260040160405180910390fd5b816110ec33856103b6565b101561110b5760405163a8d8f34960e01b815260040160405180910390fd5b61112733858585604051806020016040528060008152506111b4565b82846001600160a01b0316336001600160a01b03167ffb4f0cb01a98b78db1c2c0beb56286808e44aaa4ed05fe0aff24c471c05ce6388560405161116d91815260200190565b60405180910390a450505050565b6060600061118883610694565b9050808360405160200161119d92919061250e565b604051602081830303815290604052915050919050565b6001600160a01b0385163314806111d057506111d08533610355565b6111ec5760405162461bcd60e51b815260040161041d90612462565b610dee8585858585611617565b8160055481111561121d57604051631bf4348160e31b815260040160405180910390fd5b6000838152600460205260409020600a015480831115611250576040516391d73cd360e01b815260040160405180910390fd5b60008481526004602052604090206008015461126d90849061244b565b34101561128d5760405163311c9fd160e01b815260040160405180910390fd5b6112978382612438565b60046000868152602001908152602001600020600a01819055506112cc33858560405180602001604052806000815250611741565b6040518390859033907f51a00bbf3549c1767fa0ee97950bc8c5c25b09c6a2a54549e02762508f10cdb490600090a450505050565b6002600354036113535760405162461bcd60e51b815260206004820152601f60248201527f5265656e7472616e637947756172643a207265656e7472616e742063616c6c00604482015260640161041d565b6002600355565b81518351146113bc5760405162461bcd60e51b815260206004820152602860248201527f455243313135353a2069647320616e6420616d6f756e7473206c656e677468206044820152670dad2e6dac2e8c6d60c31b606482015260840161041d565b6001600160a01b0384166113e25760405162461bcd60e51b815260040161041d90612530565b3360005b84518110156114c9576000858281518110611403576114036124b0565b602002602001015190506000858381518110611421576114216124b0565b602090810291909101810151600084815280835260408082206001600160a01b038e1683529093529190912054909150818110156114715760405162461bcd60e51b815260040161041d90612575565b6000838152602081815260408083206001600160a01b038e8116855292528083208585039055908b168252812080548492906114ae9084906124df565b92505081905550505050806114c2906124c6565b90506113e6565b50846001600160a01b0316866001600160a01b0316826001600160a01b03167f4a39dc06d4c0dbc64b70af90fd698a233a518aa5d07e595d983b8c0526c8f7fb87876040516115199291906125bf565b60405180910390a461152f818787878787611855565b505050505050565b816001600160a01b0316836001600160a01b0316036115aa5760405162461bcd60e51b815260206004820152602960248201527f455243313135353a2073657474696e6720617070726f76616c20737461747573604482015268103337b91039b2b63360b91b606482015260840161041d565b6001600160a01b03838116600081815260016020908152604080832094871680845294825291829020805460ff191686151590811790915591519182527f17307eab39ab6107e8899845ad3d59bd9653f200f220920489ca2b5937696c31910160405180910390a3505050565b6001600160a01b03841661163d5760405162461bcd60e51b815260040161041d90612530565b336000611649856119b0565b90506000611656856119b0565b90506000868152602081815260408083206001600160a01b038c168452909152902054858110156116995760405162461bcd60e51b815260040161041d90612575565b6000878152602081815260408083206001600160a01b038d8116855292528083208985039055908a168252812080548892906116d69084906124df565b909155505060408051888152602081018890526001600160a01b03808b16928c821692918816917fc3d58168c5ae7397731d063d5bbf3d657854427343f4c083240f7aacaa2d0f62910160405180910390a4611736848a8a8a8a8a6119fb565b505050505050505050565b6001600160a01b0384166117a15760405162461bcd60e51b815260206004820152602160248201527f455243313135353a206d696e7420746f20746865207a65726f206164647265736044820152607360f81b606482015260840161041d565b3360006117ad856119b0565b905060006117ba856119b0565b90506000868152602081815260408083206001600160a01b038b168452909152812080548792906117ec9084906124df565b909155505060408051878152602081018790526001600160a01b03808a1692600092918716917fc3d58168c5ae7397731d063d5bbf3d657854427343f4c083240f7aacaa2d0f62910160405180910390a461184c836000898989896119fb565b50505050505050565b6001600160a01b0384163b1561152f5760405163bc197c8160e01b81526001600160a01b0385169063bc197c819061189990899089908890889088906004016125ed565b6020604051808303816000875af19250505080156118d4575060408051601f3d908101601f191682019092526118d19181019061264b565b60015b611980576118e0612668565b806308c379a00361191957506118f4612684565b806118ff575061191b565b8060405162461bcd60e51b815260040161041d9190611c82565b505b60405162461bcd60e51b815260206004820152603460248201527f455243313135353a207472616e7366657220746f206e6f6e2d455243313135356044820152732932b1b2b4bb32b91034b6b83632b6b2b73a32b960611b606482015260840161041d565b6001600160e01b0319811663bc197c8160e01b1461184c5760405162461bcd60e51b815260040161041d9061270e565b604080516001808252818301909252606091600091906020808301908036833701905050905082816000815181106119ea576119ea6124b0565b602090810291909101015292915050565b6001600160a01b0384163b1561152f5760405163f23a6e6160e01b81526001600160a01b0385169063f23a6e6190611a3f9089908990889088908890600401612756565b6020604051808303816000875af1925050508015611a7a575060408051601f3d908101601f19168201909252611a779181019061264b565b60015b611a86576118e0612668565b6001600160e01b0319811663f23a6e6160e01b1461184c5760405162461bcd60e51b815260040161041d9061270e565b508054611ac29061225e565b6000825580601f10611ad2575050565b601f016020900490600052602060002090810190611af09190611af3565b50565b5b80821115611b085760008155600101611af4565b5090565b80356001600160a01b0381168114611b2357600080fd5b919050565b60008060408385031215611b3b57600080fd5b611b4483611b0c565b946020939093013593505050565b6001600160e01b031981168114611af057600080fd5b600060208284031215611b7a57600080fd5b8135611b8581611b52565b9392505050565b600060208284031215611b9e57600080fd5b5035919050565b60005b83811015611bc0578181015183820152602001611ba8565b50506000910152565b60008151808452611be1816020860160208601611ba5565b601f01601f19169290920160200192915050565b6001600160a01b038c16815261016060208201819052600090611c1a8382018e611bc9565b90508281036040840152611c2e818d611bc9565b90508a60608401528960808401528860a084015282810360c0840152611c548189611bc9565b9150508560e08301528461010083015283610120830152826101408301529c9b505050505050505050505050565b602081526000611b856020830184611bc9565b634e487b7160e01b600052604160045260246000fd5b601f8201601f1916810167ffffffffffffffff81118282101715611cd157611cd1611c95565b6040525050565b600082601f830112611ce957600080fd5b813567ffffffffffffffff811115611d0357611d03611c95565b604051611d1a601f8301601f191660200182611cab565b818152846020838601011115611d2f57600080fd5b816020850160208301376000918101602001919091529392505050565b6000806000806000806000806000806101408b8d031215611d6c57600080fd5b8a35995060208b013567ffffffffffffffff80821115611d8b57600080fd5b611d978e838f01611cd8565b9a5060408d0135915080821115611dad57600080fd5b611db98e838f01611cd8565b995060608d0135985060808d0135975060a08d0135965060c08d0135915080821115611de457600080fd5b50611df18d828e01611cd8565b94505060e08b013592506101008b013591506101208b013590509295989b9194979a5092959850565b600067ffffffffffffffff821115611e3457611e34611c95565b5060051b60200190565b600082601f830112611e4f57600080fd5b81356020611e5c82611e1a565b604051611e698282611cab565b83815260059390931b8501820192828101915086841115611e8957600080fd5b8286015b84811015611ea45780358352918301918301611e8d565b509695505050505050565b600080600080600060a08688031215611ec757600080fd5b611ed086611b0c565b9450611ede60208701611b0c565b9350604086013567ffffffffffffffff80821115611efb57600080fd5b611f0789838a01611e3e565b94506060880135915080821115611f1d57600080fd5b611f2989838a01611e3e565b93506080880135915080821115611f3f57600080fd5b50611f4c88828901611cd8565b9150509295509295909350565b60008060408385031215611f6c57600080fd5b823567ffffffffffffffff80821115611f8457600080fd5b818501915085601f830112611f9857600080fd5b81356020611fa582611e1a565b604051611fb28282611cab565b83815260059390931b8501820192828101915089841115611fd257600080fd5b948201945b83861015611ff757611fe886611b0c565b82529482019490820190611fd7565b9650508601359250508082111561200d57600080fd5b5061201a85828601611e3e565b9150509250929050565b600081518084526020808501945080840160005b8381101561205457815187529582019590820190600101612038565b509495945050505050565b602081526000611b856020830184612024565b60008060008060008060008060006101208a8c03121561209157600080fd5b893567ffffffffffffffff808211156120a957600080fd5b6120b58d838e01611cd8565b9a5060208c01359150808211156120cb57600080fd5b6120d78d838e01611cd8565b995060408c0135985060608c0135975060808c0135965060a08c013591508082111561210257600080fd5b5061210f8c828d01611cd8565b94505060c08a0135925060e08a013591506101008a013590509295985092959850929598565b6000806040838503121561214857600080fd5b61215183611b0c565b91506020830135801515811461216657600080fd5b809150509250929050565b60008060006060848603121561218657600080fd5b61218f84611b0c565b95602085013595506040909401359392505050565b600080604083850312156121b757600080fd5b6121c083611b0c565b91506121ce60208401611b0c565b90509250929050565b600080600080600060a086880312156121ef57600080fd5b6121f886611b0c565b945061220660208701611b0c565b93506040860135925060608601359150608086013567ffffffffffffffff81111561223057600080fd5b611f4c88828901611cd8565b6000806040838503121561224f57600080fd5b50508035926020909101359150565b600181811c9082168061227257607f821691505b60208210810361229257634e487b7160e01b600052602260045260246000fd5b50919050565b600081546122a58161225e565b600182811680156122bd57600181146122d257612301565b60ff1984168752821515830287019450612301565b8560005260208060002060005b858110156122f85781548a8201529084019082016122df565b50505082870194505b5050505092915050565b6000611b858284612298565b601f82111561235d57600081815260208120601f850160051c8101602086101561233e5750805b601f850160051c820191505b8181101561152f5782815560010161234a565b505050565b815167ffffffffffffffff81111561237c5761237c611c95565b6123908161238a845461225e565b84612317565b602080601f8311600181146123c557600084156123ad5750858301515b600019600386901b1c1916600185901b17855561152f565b600085815260208120601f198616915b828110156123f4578886015182559484019460019091019084016123d5565b50858210156124125787850151600019600388901b60f8161c191681555b5050505050600190811b01905550565b634e487b7160e01b600052601160045260246000fd5b8181038181111561044957610449612422565b808202811582820484141761044957610449612422565b6020808252602e908201527f455243313135353a2063616c6c6572206973206e6f7420746f6b656e206f776e60408201526d195c881bdc88185c1c1c9bdd995960921b606082015260800190565b634e487b7160e01b600052603260045260246000fd5b6000600182016124d8576124d8612422565b5060010190565b8082018082111561044957610449612422565b60008251612504818460208701611ba5565b9190910192915050565b60008351612520818460208801611ba5565b9190910191825250602001919050565b60208082526025908201527f455243313135353a207472616e7366657220746f20746865207a65726f206164604082015264647265737360d81b606082015260800190565b6020808252602a908201527f455243313135353a20696e73756666696369656e742062616c616e636520666f60408201526939103a3930b739b332b960b11b606082015260800190565b6040815260006125d26040830185612024565b82810360208401526125e48185612024565b95945050505050565b6001600160a01b0386811682528516602082015260a06040820181905260009061261990830186612024565b828103606084015261262b8186612024565b9050828103608084015261263f8185611bc9565b98975050505050505050565b60006020828403121561265d57600080fd5b8151611b8581611b52565b600060033d11156126815760046000803e5060005160e01c5b90565b600060443d10156126925790565b6040516003193d81016004833e81513d67ffffffffffffffff81602484011181841117156126c257505050505090565b82850191508151818111156126da5750505050505090565b843d87010160208285010111156126f45750505050505090565b61270360208286010187611cab565b509095945050505050565b60208082526028908201527f455243313135353a204552433131353552656365697665722072656a656374656040820152676420746f6b656e7360c01b606082015260800190565b6001600160a01b03868116825285166020820152604081018490526060810183905260a06080820181905260009061279090830184611bc9565b97965050505050505056fea2646970667358221220f2f2b0a73ea5b8590405b8a4bff0909d98b78d02d83b565c69b57a51fce3762164736f6c63430008130033",
    "linkReferences": {}
  },
  "methodIdentifiers": {
    "balanceOf(address,uint256)": "00fdd58e",
    "balanceOfBatch(address[],uint256[])": "4e1273f4",
    "createEvent(string,string,uint256,uint256,uint256,string,uint256,uint256,uint256)": "5b1c4bea",
    "currentEventId()": "091dbbd7",
    "editEvent(uint256,string,string,uint256,uint256,uint256,string,uint256,uint256,uint256)": "27c9adb6",
    "events(uint256)": "0b791430",
    "getUri(uint256)": "da0544aa",
    "isApprovedForAll(address,address)": "e985e9c5",
    "owner()": "8da5cb5b",
    "purchaseTickets(uint256,uint256)": "f4057c06",
    "safeBatchTransferFrom(address,address,uint256[],uint256[],bytes)": "2eb2c2d6",
    "safeTransferFrom(address,address,uint256,uint256,bytes)": "f242432a",
    "setApprovalForAll(address,bool)": "a22cb465",
    "supportsInterface(bytes4)": "01ffc9a7",
    "transferTicket(address,uint256,uint256)": "acd4b5e9",
    "uri(uint256)": "0e89341c",
    "withdraw(uint256)": "2e1a7d4d"
  },
  "id": 28
}